S00C0000485733432E7372656303
S11300000C9434000C9465000C9451000C94510031
S11300100C9451000C9451000C9451000C94510018
S11300200C9451000C9451000C9451000C94510008
S11300300C9451000C9451000C9451000C945100F8
S11300400C9451000C9451000C9451000C945100E8
S11300500C9451000C9451000C9451000C945100D8
S11300600C9451000C94510011241FBECFEFD8E022
S1130070DEBFCDBF11E0A0E0B1E0E0E6F1E002C0F8
S113008005900D92A031B107D9F721E0A0E1B1E0CC
S113009001C01D92A331B207E1F70E9453000C94F2
S11300A0AE000C9400008FEF84B98091000185B9F3
S11300B08BEF8AB984E08BB91092120182E08093AD
S11300C0690081E08DBB7894FFCF1F920F920FB629
S11300D00F9211242F938F939F93EF93FF9310927A
S11300E01101109210014A991EC08FE99FE00197F7
S11300F0F1F700C0000085B1805885B980911001E6
S113010090911101019690931101809310014A99E5
S113011004C0883B2BE0920740F3883B9B4019F4D2
S1130120109212010AC0809112018F5F803119F080
S11301308093120102C010921201E0911201F0E0CA
S1130140E050FF4F808185B9FF91EF919F918F918E
S11301502F910F900FBE0F901F901895F894FFCF1A
S11301603F065B4F666D7D077F6F777C395E7971E3
S9030000FC
