S010000054494D4552305F432E73726563C1
S11300000C9434000C943E000C943E000C943E007E
S11300100C943E000C943E000C943E000C943E0064
S11300200C943E000C943E000C943E000C943E0054
S11300300C943E000C943E000C943E000C943E0044
S11300400C944B000C943E000C943E000C943E0027
S11300500C943E000C943E000C943E000C943E0024
S11300600C943E000C943E0011241FBECFEFD8E048
S1130070DEBFCDBF0E9440000C945F000C940000D2
S113008081E087B980936E0083E085BD14BC8DEB5D
S113009086BD7894FFCF1F920F920FB60F92112452
S11300A08F939F938DEB86BD98B181E0892788B9A2
S11300B09F918F910F900FBE0F901F901895F894F9
S10500C0FFCF6C
S9030000FC
