S01000003250756C73655F432E7372656337
S11300000C9434000C943E000C943E000C943E007E
S11300100C943E000C943E000C943E000C943E0064
S11300200C943E000C943E000C943E000C945D0035
S11300300C946F000C943E000C943E000C943E0013
S11300400C943E000C943E000C943E000C943E0034
S11300500C943E000C943E000C943E000C943E0024
S11300600C943E000C943E0011241FBECFEFD8E048
S1130070DEBFCDBF0E9440000C9481000C940000B0
S113008083E087B918B810928500109284008FE13C
S11300909EE4909389008093880080E197E2909396
S11300A08B0080938A00109280008AE08093810004
S11300B086E080936F007894FFCF1F920F920FB663
S11300C00F9211248F939F9398B181E0892788B967
S11300D09F918F910F900FBE0F901F9018951F92B4
S11300E00F920FB60F9211248F939F9398B182E0D1
S11300F0892788B99F918F910F900FBE0F901F9001
S10901001895F894FFCFEE
S9030000FC
