:020000020000FC
:100000000C9404000C9420000FEF0DBF08E00EBF0D
:100010000BEF0AB904E00BB900EF04B90FE005B922
:1000200001E0009369000DBB00E006BD07BD02E4DE
:1000300004BD00E005BD00E000936E007894FFCFA2
:100040000F930FB70F9327EF10E0ECE1F1E02BB91E
:100050000000000033B13F70310F00E03750E30F74
:10006000F01F44914F3F39F047BD04E005BD02E069
:1000700000936E004DC02FEE19E0ECE1F1E02BB9DA
:100080000000000033B13F70310F00E03750E30F44
:10009000F01F44914F3F39F047BD04E005BD02E039
:1000A00000936E0035C02FED12E1ECE1F1E02BB9C9
:1000B0000000000033B13F70310F00E03750E30F14
:1000C000F01F44914F3F39F047BD04E005BD02E009
:1000D00000936E001DC02FE71BE1ECE1F1E02BB9AE
:1000E0000000000033B13F70310F00E03750E30FE4
:1000F000F01F44914F3F39F047BD04E005BD02E0D9
:1001000000936E0005C000E005BD00E000936E00A6
:1001100004E00BB90F910FBF0F91189576FFFFFF09
:1001200069FF5D59FF4FFFFFFF46FF3E3BFF34FF76
:10013000FFFF2EFF2C27FF23FFFFFF1FFF1D1AFFCE
:00000001FF
