:100000000C9434000C943E000C943E000C943E0082
:100010000C943E000C943E000C943E000C943E0068
:100020000C943E000C943E000C943E000C943E0058
:100030000C943E000C943E000C944D000C943E0039
:100040000C943E000C943E000C943E000C943E0038
:100050000C943E000C943E000C943E000C943E0028
:100060000C943E000C943E0011241FBECFEFD8E04C
:10007000DEBFCDBF0E9440000C945F000C940000D6
:1000800081E087B982E080936E0093E095BD84BDE6
:1000900016BC87E387BD7894FFCF1F920F920FB6EF
:1000A0000F9211248F939F9398B181E0892788B98B
:1000B0009F918F910F900FBE0F901F901895F894FD
:0200C000FFCF70
:00000001FF
