:100000000C9434000C9489000C9451000C94510011
:100010000C9451000C9451000C9451000C9451001C
:100020000C9451000C9451000C9451000C9451000C
:100030000C9451000C9451000C9451000C945100FC
:100040000C9451000C9451000C9451000C945100EC
:100050000C9451000C9451000C9451000C945100DC
:100060000C9451000C94510011241FBECFEFD8E026
:10007000DEBFCDBF11E0A0E0B1E0E8ECF1E002C0EE
:1000800005900D92AC31B107D9F721E0ACE1B1E0B8
:1000900001C01D92AE31B207E1F70E9453000C94EB
:1000A000E2000C94000080EF84B98FE085B98BEFFB
:1000B0008AB98FEF8BB982E08093690081E08DBBB4
:1000C00078948FE085B97894FDCF882309F131E0E9
:1000D00001C0330F6A95EAF720E09BB193279BB9E3
:1000E0004FE55AEE90E0415050409040E1F700C09B
:1000F00000009BB193279BB94FE55AEE90E0415029
:1001000050409040E1F700C000002F5F8213E5CF20
:1001100008951F920F920FB60F921124FF920F9322
:100120001F932F933F934F935F936F937F938F937F
:100130009F93AF93BF93CF93DF93EF93FF93F89485
:10014000F12CC6E0D0E001E010E0C8010C2E02C0A6
:10015000880F991F0A94E2F7809585B9E3B1EF7093
:10016000E750EF0DE0931D01F0E0E050FF4F80817C
:1001700080931C01811105C060E085E00E9465004C
:1001800005C08F3F19F061E00E946500219789E06A
:10019000F80E2BE1F212D9CFFF91EF91DF91CF91C1
:1001A000BF91AF919F918F917F916F915F914F918F
:1001B0003F912F911F910F91FF900F900FBE0F90C5
:0801C0001F901895F894FFCF81
:1001C80001FFFFFF04FF070AFF02FFFFFF05FF080B
:0C01D80000FF03FFFFFF06FF090BFF0004
:00000001FF
