:020000020000FC
:1000000000C008E204B900E005B900EF0AB90FEE3C
:1000100030E00E9436002F3FA9F40FED39E00E9436
:1000200036002F3F79F40FEB32E10E9436002F3F6C
:1000300049F40FE73BE10E9436002F3F19F400E03E
:1000400005B9E5CF0E942500E2CF48E245B906D0C8
:1000500008D040E045B902D004D008955FEF622F88
:1000600008955A95F1F76A95E1F70895E8E8F0E008
:100070000BB9000019B10FE01023130F175000E067
:10008000E10FF01F249108950FFFFFFF10FF1112E1
:10009000FF13FFFFFF14FF1516FF17FFFFFF18FFE9
:0C00A000191AFF1BFFFFFF1CFF1D1EFFB5
:00000001FF
