:020000020000FC
:100000000C9404000C9417001FEF1DBF18E01EBFD6
:100010000BEF0AB90FEF0BB900EF04B90FE005B908
:1000200002E00093690001E00DBB7894FFCFF894E3
:100030000F930FB70F930FEB10E0EAE7F1E005B96C
:100040000000000023B12F70210F275000E0E20FC5
:10005000F01F04910F3F19F140E0502F5F70007FB7
:1000600006950695069506953BB14517C1F0439553
:1000700030273BB98FE07FEF6FEF6A95F1F77A9504
:10008000D9F78A95C1F730273BB98FE07FEF6FEF43
:100090006A95F1F77A95D9F78A95C1F7E6CF0FED12
:1000A00019E0EAE7F1E005B90000000023B12F7084
:1000B000210F275000E0E20FF01F04910F3F19F1CC
:1000C00040E0502F5F70007F0695069506950695D7
:1000D0003BB14517C1F0439530273BB98FE07FEF27
:1000E0006FEF6A95F1F77A95D9F78A95C1F73027BE
:1000F0003BB98FE07FEF6FEF6A95F1F77A95D9F70B
:100100008A95C1F7E6CF0FEE12E1EAE7F1E005B913
:100110000000000023B12F70210F275000E0E20FF4
:10012000F01F04910F3F19F140E0502F5F70007FE6
:1001300006950695069506953BB14517C1F0439582
:1001400030273BB98FE07FEF6FEF6A95F1F77A9533
:10015000D9F78A95C1F730273BB98FE07FEF6FEF72
:100160006A95F1F77A95D9F78A95C1F7E6CF0FE04E
:1001700005B90F910FBF0F91189521FFFFFF24FFC5
:10018000272AFF22FFFFFF25FF2815FF23FFFFFF80
:0601900026FF292BFFFFF2
:00000001FF
