S00C0000485732432E7372656304
S11300000C9434000C9451000C9451000C94930003
S11300100C9451000C9451000C9451000C94510018
S11300200C9451000C9451000C9451000C94510008
S11300300C9451000C9451000C9451000C945100F8
S11300400C9451000C9451000C9451000C945100E8
S11300500C9451000C9451000C9451000C945100D8
S11300600C9451000C94510011241FBECFEFD8E022
S1130070DEBFCDBF11E0A0E0B1E0E0E6F1E002C0F8
S113008005900D92AE30B107D9F721E0AEE0B1E0B2
S113009001C01D92A131B207E1F70E9453000C94F4
S11300A0AE000C94000080EC84B98FE385B993B161
S11300B090930F0191E09093680080936B00789483
S11300C041E050E01092100180E0282F30E0BA01A6
S11300D002C0660F771F8A95E2F7CB0190910F015A
S11300E0892380930E018823B1F0220F331FF90175
S11300F0E050FF4F808187B9E0911001F0E0EE0FEE
S1130100FF1FE050FF4F818188B98FE39CE901977D
S1130110F1F700C00000809110018F5F80931001FF
S1130120863098F2CFCF1F920F920FB60F92112400
S11301308F93EF93FF9383B180930F01811106C0D6
S1130140E0E0F1E0848587B9858588B9FF91EF9176
S11301508F910F900FBE0F901F901895F894FFCFBA
S11101607B027B017E047E027D047D017F0014
S9030000FC
