S00D000055534152542E7372656388
S11300000C9434000C9449000C9449000C9449005D
S11300100C9449000C9449000C9449000C94490038
S11300200C9449000C9449000C9449000C94490028
S11300300C9449000C9449000C9449000C94490018
S11300400C9449000C9449000C945D000C944900F4
S11300500C9449000C9449000C9449000C944900F8
S11300600C9449000C94490011241FBECFEFD8E032
S1130070DEBFCDBF11E0A0E0B1E0E0E0F1E002C0FE
S113008005900D92A031B107D9F70E944B000C9452
S11300907E000C9400008FEF87B91092C00080E9B5
S11300A08093C1008EE08093C20082E290E090933E
S11300B0C5008093C4007894FFCF1F920F920FB6AF
S11300C00F9211248F93EF93FF93E091C60080ED7C
S11300D08E0F8A3038F4F0E0E053FF4F8081809532
S11300E088B904C080910E01809588B9FF91EF9181
S11300F08F910F900FBE0F901F901895F894FFCF1B
S11301003F065B4F666D7D077F6F777C585E797124
S9030000FC
