S014000054494D4552315F435F4354432E7372656383
S11300000C9434000C943E000C943E000C943E007E
S11300100C943E000C943E000C943E000C943E0064
S11300200C943E000C943E000C943E000C9457003B
S11300300C943E000C943E000C943E000C943E0044
S11300400C943E000C943E000C943E000C943E0034
S11300500C943E000C943E000C943E000C943E0024
S11300600C943E000C943E0011241FBECFEFD8E048
S1130070DEBFCDBF0E9440000C9469000C940000C8
S113008081E087B982E080936F009CE090938100C7
S113009080938000F894109285001092840083EF7E
S11300A09DE090938900809388007894FFCF1F92FD
S11300B00F920FB60F9211248F939F9398B181E002
S11300C0892788B99F918F910F900FBE0F901F9031
S10900D01895F894FFCF1F
S9030000FC
